{
  "contractName": "Campaign",
  "abi": [
    {
      "constant": true,
      "inputs": [
        {
          "name": "",
          "type": "address"
        }
      ],
      "name": "contributors",
      "outputs": [
        {
          "name": "",
          "type": "bool"
        }
      ],
      "payable": false,
      "stateMutability": "view",
      "type": "function"
    },
    {
      "constant": true,
      "inputs": [],
      "name": "endTime",
      "outputs": [
        {
          "name": "",
          "type": "uint256"
        }
      ],
      "payable": false,
      "stateMutability": "view",
      "type": "function"
    },
    {
      "constant": true,
      "inputs": [],
      "name": "contributorsCount",
      "outputs": [
        {
          "name": "",
          "type": "uint256"
        }
      ],
      "payable": false,
      "stateMutability": "view",
      "type": "function"
    },
    {
      "constant": true,
      "inputs": [
        {
          "name": "",
          "type": "uint256"
        }
      ],
      "name": "requests",
      "outputs": [
        {
          "name": "amount",
          "type": "uint256"
        },
        {
          "name": "approvalCount",
          "type": "uint256"
        },
        {
          "name": "recipient",
          "type": "address"
        },
        {
          "name": "description",
          "type": "string"
        },
        {
          "name": "complete",
          "type": "bool"
        }
      ],
      "payable": false,
      "stateMutability": "view",
      "type": "function"
    },
    {
      "constant": true,
      "inputs": [],
      "name": "owner",
      "outputs": [
        {
          "name": "",
          "type": "address"
        }
      ],
      "payable": false,
      "stateMutability": "view",
      "type": "function"
    },
    {
      "constant": true,
      "inputs": [],
      "name": "minimalContribution",
      "outputs": [
        {
          "name": "",
          "type": "uint256"
        }
      ],
      "payable": false,
      "stateMutability": "view",
      "type": "function"
    },
    {
      "constant": true,
      "inputs": [],
      "name": "hardCap",
      "outputs": [
        {
          "name": "",
          "type": "uint256"
        }
      ],
      "payable": false,
      "stateMutability": "view",
      "type": "function"
    },
    {
      "inputs": [
        {
          "name": "_minContribution",
          "type": "uint256"
        },
        {
          "name": "_duration",
          "type": "uint256"
        },
        {
          "name": "_hardCap",
          "type": "uint256"
        },
        {
          "name": "_owner",
          "type": "address"
        }
      ],
      "payable": false,
      "stateMutability": "nonpayable",
      "type": "constructor"
    },
    {
      "constant": false,
      "inputs": [],
      "name": "contribute",
      "outputs": [],
      "payable": true,
      "stateMutability": "payable",
      "type": "function"
    },
    {
      "constant": false,
      "inputs": [
        {
          "name": "_amount",
          "type": "uint256"
        },
        {
          "name": "_recipient",
          "type": "address"
        },
        {
          "name": "_description",
          "type": "string"
        }
      ],
      "name": "createRequest",
      "outputs": [],
      "payable": false,
      "stateMutability": "nonpayable",
      "type": "function"
    },
    {
      "constant": false,
      "inputs": [
        {
          "name": "_index",
          "type": "uint256"
        }
      ],
      "name": "approveRequest",
      "outputs": [],
      "payable": false,
      "stateMutability": "nonpayable",
      "type": "function"
    },
    {
      "constant": false,
      "inputs": [
        {
          "name": "_index",
          "type": "uint256"
        }
      ],
      "name": "finalizeRequest",
      "outputs": [],
      "payable": false,
      "stateMutability": "nonpayable",
      "type": "function"
    },
    {
      "constant": true,
      "inputs": [],
      "name": "getSummary",
      "outputs": [
        {
          "name": "balance",
          "type": "uint256"
        },
        {
          "name": "minContribution",
          "type": "uint256"
        },
        {
          "name": "requestCount",
          "type": "uint256"
        },
        {
          "name": "contCount",
          "type": "uint256"
        },
        {
          "name": "campaignOwner",
          "type": "address"
        }
      ],
      "payable": false,
      "stateMutability": "view",
      "type": "function"
    },
    {
      "constant": true,
      "inputs": [],
      "name": "getRequestsCount",
      "outputs": [
        {
          "name": "",
          "type": "uint256"
        }
      ],
      "payable": false,
      "stateMutability": "view",
      "type": "function"
    }
  ],
  "bytecode": "0x608060405234801561001057600080fd5b50604051608080610d7c8339810180604052810190808051906020019092919080519060200190929190805190602001909291908051906020019092919050505080600460006101000a81548173ffffffffffffffffffffffffffffffffffffffff021916908373ffffffffffffffffffffffffffffffffffffffff160217905550836000819055508242016001819055508160038190555050505050610cc0806100bc6000396000f3006080604052600436106100c5576000357c0100000000000000000000000000000000000000000000000000000000900463ffffffff16806303441006146100ca5780631f6d4942146100f75780633197cbb6146101525780633410452a1461017d5780634051ddac146101a85780637569b3d71461021b57806381d12c58146102465780638da5cb5b14610338578063b8f494361461038f578063c4a4f265146103f4578063d7bb99ba1461041f578063d7d1bbdb14610429578063fb86a40414610456575b600080fd5b3480156100d657600080fd5b506100f560048036038101908080359060200190929190505050610481565b005b34801561010357600080fd5b50610138600480360381019080803573ffffffffffffffffffffffffffffffffffffffff169060200190929190505050610613565b604051808215151515815260200191505060405180910390f35b34801561015e57600080fd5b50610167610633565b6040518082815260200191505060405180910390f35b34801561018957600080fd5b50610192610639565b6040518082815260200191505060405180910390f35b3480156101b457600080fd5b506101bd610646565b604051808681526020018581526020018481526020018381526020018273ffffffffffffffffffffffffffffffffffffffff1673ffffffffffffffffffffffffffffffffffffffff1681526020019550505050505060405180910390f35b34801561022757600080fd5b506102306106a6565b6040518082815260200191505060405180910390f35b34801561025257600080fd5b50610271600480360381019080803590602001909291905050506106ac565b604051808681526020018581526020018473ffffffffffffffffffffffffffffffffffffffff1673ffffffffffffffffffffffffffffffffffffffff1681526020018060200183151515158152602001828103825284818151815260200191508051906020019080838360005b838110156102f95780820151818401526020810190506102de565b50505050905090810190601f1680156103265780820380516001836020036101000a031916815260200191505b50965050505050505060405180910390f35b34801561034457600080fd5b5061034d6107b6565b604051808273ffffffffffffffffffffffffffffffffffffffff1673ffffffffffffffffffffffffffffffffffffffff16815260200191505060405180910390f35b34801561039b57600080fd5b506103f260048036038101908080359060200190929190803573ffffffffffffffffffffffffffffffffffffffff1690602001909291908035906020019082018035906020019190919293919293905050506107dc565b005b34801561040057600080fd5b50610409610986565b6040518082815260200191505060405180910390f35b61042761098c565b005b34801561043557600080fd5b5061045460048036038101908080359060200190929190505050610a3e565b005b34801561046257600080fd5b5061046b610ba1565b6040518082815260200191505060405180910390f35b6000600460009054906101000a900473ffffffffffffffffffffffffffffffffffffffff1673ffffffffffffffffffffffffffffffffffffffff163373ffffffffffffffffffffffffffffffffffffffff161415156104df57600080fd5b81600280548115156104ed57fe5b046005828154811015156104fd57fe5b90600052602060002090600602016001015411151561051b57600080fd5b60058381548110151561052a57fe5b906000526020600020906006020191508160040160009054906101000a900460ff1615151561055857600080fd5b3073ffffffffffffffffffffffffffffffffffffffff163182600001541115151561058257600080fd5b60018260040160006101000a81548160ff0219169083151502179055508160020160009054906101000a900473ffffffffffffffffffffffffffffffffffffffff1673ffffffffffffffffffffffffffffffffffffffff166108fc83600001549081150290604051600060405180830381858888f1935050505015801561060d573d6000803e3d6000fd5b50505050565b60066020528060005260406000206000915054906101000a900460ff1681565b60015481565b6000600580549050905090565b60008060008060003073ffffffffffffffffffffffffffffffffffffffff16319450600054935060058054905092506002549150600460009054906101000a900473ffffffffffffffffffffffffffffffffffffffff1690509091929394565b60025481565b6005818154811015156106bb57fe5b90600052602060002090600602016000915090508060000154908060010154908060020160009054906101000a900473ffffffffffffffffffffffffffffffffffffffff1690806003018054600181600116156101000203166002900480601f0160208091040260200160405190810160405280929190818152602001828054600181600116156101000203166002900480156107995780601f1061076e57610100808354040283529160200191610799565b820191906000526020600020905b81548152906001019060200180831161077c57829003601f168201915b5050505050908060040160009054906101000a900460ff16905085565b600460009054906101000a900473ffffffffffffffffffffffffffffffffffffffff1681565b6107e4610ba7565b600460009054906101000a900473ffffffffffffffffffffffffffffffffffffffff1673ffffffffffffffffffffffffffffffffffffffff163373ffffffffffffffffffffffffffffffffffffffff1614151561084057600080fd5b60a060405190810160405280868152602001600081526020018573ffffffffffffffffffffffffffffffffffffffff16815260200184848080601f016020809104026020016040519081016040528093929190818152602001838380828437820191505050505050815260200160001515815250905060058190806001815401808255809150509060018203906000526020600020906006020160009091929091909150600082015181600001556020820151816001015560408201518160020160006101000a81548173ffffffffffffffffffffffffffffffffffffffff021916908373ffffffffffffffffffffffffffffffffffffffff160217905550606082015181600301908051906020019061095b929190610bef565b5060808201518160040160006101000a81548160ff0219169083151502179055505050505050505050565b60005481565b6000543411151561099c57600080fd5b426001541115156109ac57600080fd5b6003543073ffffffffffffffffffffffffffffffffffffffff16311015156109d357600080fd5b6001600660003373ffffffffffffffffffffffffffffffffffffffff1673ffffffffffffffffffffffffffffffffffffffff16815260200190815260200160002060006101000a81548160ff0219169083151502179055506001600260008282540192505081905550565b6000600660003373ffffffffffffffffffffffffffffffffffffffff1673ffffffffffffffffffffffffffffffffffffffff16815260200190815260200160002060009054906101000a900460ff161515610a9857600080fd5b81600581815481101515610aa857fe5b906000526020600020906006020160050160003373ffffffffffffffffffffffffffffffffffffffff1673ffffffffffffffffffffffffffffffffffffffff16815260200190815260200160002060009054906101000a900460ff16151515610b1057600080fd5b600583815481101515610b1f57fe5b9060005260206000209060060201915060018260050160003373ffffffffffffffffffffffffffffffffffffffff1673ffffffffffffffffffffffffffffffffffffffff16815260200190815260200160002060006101000a81548160ff02191690831515021790555060018260010160008282540192505081905550505050565b60035481565b60a0604051908101604052806000815260200160008152602001600073ffffffffffffffffffffffffffffffffffffffff168152602001606081526020016000151581525090565b828054600181600116156101000203166002900490600052602060002090601f016020900481019282601f10610c3057805160ff1916838001178555610c5e565b82800160010185558215610c5e579182015b82811115610c5d578251825591602001919060010190610c42565b5b509050610c6b9190610c6f565b5090565b610c9191905b80821115610c8d576000816000905550600101610c75565b5090565b905600a165627a7a7230582026c9499bc9d62517ab5929bc27276503f27e9cc0ba230369ece7486d029e8ac60029",
  "source": "pragma solidity ^0.4.23;\n\ncontract Campaign {\n\n\tstruct Request {\n\t\tuint256 amount;\n\t\tuint256 approvalCount;\n\t\taddress recipient;\n\t\tstring description;\n\t\tbool complete;\n\t\tmapping(address => bool) approvals;\n\t}\n\n\tuint256 public minimalContribution;\n\tuint256 public endTime;\n\tuint256 public contributorsCount;\n\tuint256 public hardCap;\n\n\taddress public owner;\n\n\tRequest[] public requests;\n\n\tmapping(address => bool) public contributors;\n\n\tconstructor(uint256 _minContribution, \n\t\t\t\tuint256 _duration,\n\t\t\t\tuint256 _hardCap,\n\t\t\t\taddress _owner) \n\tpublic {\n\t\towner = _owner;\n\t\tminimalContribution = _minContribution;\n\t\tendTime = now + _duration;\n\t\thardCap = _hardCap;\n\t}\n\n\tfunction contribute() external payable {\n\t\trequire(msg.value > minimalContribution);\n\t\trequire(endTime > now);\n\t\trequire(address(this).balance < hardCap);\n\n\t\tcontributors[msg.sender] = true;\n\t\tcontributorsCount += 1;\n\t}\n\n\tfunction createRequest(uint256 _amount, \n\t\t\t\t\t\t\taddress _recipient,\n\t\t\t\t\t\t\tstring _description) \n\texternal \n\tonlyOwner {\n\t\tRequest memory newRequest = Request({\n\t\t\tamount: _amount,\n\t\t\trecipient: _recipient,\n\t\t\tdescription: _description,\n\t\t\tcomplete: false,\n\t\t\tapprovalCount: 0\n\t\t});\n\n\t\trequests.push(newRequest);\n\t}\n\n\tfunction approveRequest(uint256 _index) external onlyContributor onlyIfNotApproved(_index) {\n\t\tRequest storage request = requests[_index];\n\n\t\trequest.approvals[msg.sender] = true;\n\t\trequest.approvalCount += 1;\n\t}\n\n\tfunction finalizeRequest(uint256 _index) external onlyOwner onlyApproved(_index) {\n\t\tRequest storage request = requests[_index];\n\n\t\trequire(!request.complete);\n\t\trequire(request.amount <= address(this).balance);\n\n\t\trequest.complete = true;\n\t\trequest.recipient.transfer(request.amount);\n\t}\n\n\tfunction getSummary() external view returns(uint256 balance, \n\t\t\t\t\t\t\t\t\t\t\t\tuint256 minContribution,\n\t\t\t\t\t\t\t\t\t\t\t\tuint256 requestCount, \n\t\t\t\t\t\t\t\t\t\t\t\tuint256 contCount,\n\t\t\t\t\t\t\t\t\t\t\t\taddress campaignOwner) \n\t{\n\t\tbalance = address(this).balance;\n\t\tminContribution = minimalContribution;\n\t\trequestCount = requests.length;\n\t\tcontCount = contributorsCount;\n\t\tcampaignOwner = owner;\n\t}\n\n\tfunction getRequestsCount() external view returns(uint256) {\n\t\treturn requests.length;\n\t}\n\n\tmodifier onlyOwner {\n\t\trequire(msg.sender == owner);\n\t\t_;\n\t}\n\n\tmodifier onlyContributor {\n\t\trequire(contributors[msg.sender]);\n\t\t_;\n\t}\n\n\tmodifier onlyIfNotApproved(uint256 _index) {\n\t\trequire(!requests[_index].approvals[msg.sender]);\n\t\t_;\n\t}\n\n\tmodifier onlyApproved(uint256 _index) {\n\t\trequire(requests[_index].approvalCount > (contributorsCount / 2));\n\t\t_;\n\t}\n}\n",
  "sourcePath": "/Users/tomamajic/Desktop/Toma/Dev/udemy/kickstarter/ethereum/contracts/Campaign.sol",
  "compiler": {
    "name": "solc",
    "version": "0.4.23+commit.124ca40d.Emscripten.clang"
  },
  "schemaVersion": "2.0.0",
  "updatedAt": "2018-08-01T13:48:44.396Z"
}